:100000000C9431020C944E020C944E020C944E024D
:100010000C944E020C944E020C944E020C944E0220
:100020000C944E020C944E020C94780F0C94340FE6
:100030000C94541C0C944E020C944E020C944E02E0
:100040000C944E020C944E020C944E020C944E02F0
:100050000C944E020C944F100C944E020C944E02D1
:100060000C944E020C944E020C944E020C944E02D0
:100070000C944E020C944E020C944E020C944E02C0
:100080000C944E020C944E020C944E020C944E02B0
:100090000C944E020C944E020C944E020C944E02A0
:1000A0000C944E020C944E020C944E022B004C0009
:1000B0002961E100354100001E00140004001D61AB
:1000C000095D4D001F001A0016001B00E1042A0004
:1000D000200008000700060050002C002100150039
:1000E000090019004F004A00220017000A0005000D
:1000F00000006564500001530000000F0000010083
:100100004F000153000000070000010023001C0005
:100110000B00110000002961240018000D001000E0
:1001200052004B0025000C000E00360051002874D0
:10013000260012000F0037002F00E30027001300F5
:100140003342387130004E002D0031003468E50034
:100150000151000029000100010001000100000020
:100160003A001E02200222022E002F5D3B001F02D9
:10017000210223020100CA5C3C002F0226022F004C
:100180000100CB5C3D0030022702300001002E5DF3
:100190003E0031023500350200000100010001007F
:1001A0000000010000002D5D0100010000000100C1
:1001B0000000C35C3F0052002E002402000001003A
:1001C0004000240021001E00010001004100250024
:1001D00022001F003700C65C4200260023002000DA
:1001E0002700C75C430025022E0231002E000100CB
:1001F0004400450001000100010000000A00000069
:1002000000000306B200080001000000A80008007A
:1002100002000200A0001400030057494E5553424B
:10022000000000000000000000008400040007003F
:100230002A004400650076006900630065004900FB
:100240006E00740065007200660061006300650066
:1002500047005500490044007300000050007B0037
:100260003900440042003700460031004600440097
:100270002D0037004500370041002D0034003000CC
:10028000300038002D0039003300360042002D00C8
:100290003600420041003600430031003900410081
:1002A00033003000380063007D00000000001B03B5
:1002B00001636F6E6669677572652E6572676F643C
:1002C0006F782D657A2E636F6D0005010980A1019D
:1002D000850319012AB700150126B700950175108D
:1002E0008100C0050C0901A101850419012AA002A1
:1002F000150126A002950175108100C005010906AF
:10030000A1018505050719E029E7150025019508D4
:10031000750181020507190029EF1500250195F0E7
:1003200075018102050819012905950575019102DC
:10033000950175039101C005010906A10105071981
:10034000E029E715002501950875018102950175E1
:100350000881010507190029FF150026FF009506F1
:100360007508810005081901290595057501910297
:10037000950175039101C009025200030100A0FA22
:1003800009040000010301010009211101000122FB
:1003900040000705810308000A0904010001030069
:1003A0000000092111010001226D000705820320D0
:1003B000000A0904020002FF000000070583034051
:1003C00000050705040340000512011002000000AB
:1003D00008973274490100010200011603450072BA
:1003E0000067006F0044006F007800200045005A4D
:1003F00000000030035A0053004100200054006503
:1004000000630068006E006F006C006F0067007989
:100410000020004C00610062007300200049006E63
:10042000006300000004030904050F3900021C10DA
:100430000500DF60DDD88945C74C9CD2659D9E6470
:100440008A9F00000306B20045001810050038B668
:100450000834A909A0478BFDA0768815B665000170
:10046000420011241FBECFEFDAE0DEBFCDBF11E0A6
:10047000A0E0B1E0ECEDFDE302C005900D92A035E7
:10048000B107D9F722E0A0E5B1E001C01D92AF3677
:10049000B207E1F70E94CD190C94C11E0C94000024
:1004A000E8EDF0E080818E7F80831092E200109270
:1004B000DA001092E100A0EEB0E08C9181608C93A4
:1004C00080818F77808319BCA7EDB0E08C918E7FFF
:1004D0008C9380818F7E80831092350208952091C5
:1004E000E4003091E50095E6A9012091EC00822F0F
:1004F000817020FF06C08091E80080FF06C080E088
:1005000008952091E80022FD1AC080915A028823A4
:1005100089F0853089F08091EB0085FD0FC0209136
:10052000E4003091E50042175307F9F29150E1F6EB
:1005300084E0089582E0089583E0089581E00895BD
:10054000EF92FF920F931F93CF937C018B010E9438
:100550006F02C82F882371F08C2FCF911F910F91BC
:10056000FF90EF900895F70181917F018093F10052
:10057000015011090115110579F38091E80085FDFD
:10058000F2CF8091E8008E778093E8000E946F029E
:10059000882381F3C82FE0CF80915C0287FF13C0CE
:1005A0008091E80082FF06C08091E8008B778093FD
:1005B000E80004C080915A028111F2CF0895809121
:1005C0005A028823D9F38091E80080FFF8CF809108
:1005D000E8008E77ECCF982F9093E900242F762FA8
:1005E00050E0891731F07091EC002091ED005091AE
:1005F000F00021FD07C09F5F973071F78093E900FD
:1006000081E008953091EB003E7F3093EB00309114
:10061000ED003D7F3093ED003091EB003160309381
:10062000EB007093EC002093ED005093F0002091CC
:10063000EE0027FDE0CF80E00895CF92DF92EF92A9
:10064000FF920F931F93CF93DF93C8EDD0E0888183
:100650008F7E8883E7EDF0E080818160808384E095
:1006600082BF81E08093350288818E7F888302EE8D
:1006700010E0F80110821092DA0081EEC82ED12C21
:10068000F601108288818F778883888180688883CB
:1006900088818F7D888319BC10925A0210925B0268
:1006A000109259021092580290EEE92EF12CF701A7
:1006B00080818B7F808388818160888342E060E0D5
:1006C00080E00E94EB02F60180818E7F8083F8013A
:1006D000808181608083808188608083F701808150
:1006E0008E7F8083888180618883DF91CF911F9185
:1006F0000F91FF90EF90DF90CF900895FC018091D3
:1007000062029091630286179707A0F06115710548
:1007100029F48091E8008E778093E80090E06115DD
:10072000710551F4911108C08091E80082FF35C035
:1007300080E00895BC01F2CF80915A028823C9F16C
:100740008530C9F18091E80083FD31C08091E800D7
:1007500082FDEACF8091E80080FFE1CF8091F30035
:100760002091F200382F6115710519F028303105FC
:1007700058F091E02830310509F090E08091E800D0
:100780008E778093E800CBCF84918093F1003196EF
:10079000615071092F5F3F4FE6CF80915A02882345
:1007A00041F0853041F08091E80083FFBDCF81E0CA
:1007B000089582E0089583E00895FC01809162022B
:1007C0009091630286179707A0F06115710529F4CF
:1007D0009091E8009E779093E80090E06115710594
:1007E00051F4911108C08091E80082FF34C080E08C
:1007F0000895BC01F2CF80915A028823C1F185305F
:10080000C1F18091E80083FD30C08091E80082FD55
:10081000EACF8091E80080FFE1CF8091F300209142
:10082000F200382F6115710519F02830310558F0A4
:1008300091E02830310509F090E02091E8002E7712
:100840002093E800CBCF81918093F1006150710932
:100850002F5F3F4FE7CF80915A02882341F08530C8
:1008600041F08091E80083FFBECF81E0089582E0EF
:10087000089583E0089508958091370208952091A6
:100880005A02243099F423E02093E90070E050E00C
:1008900040E00E94A002882321F0109233021092BF
:1008A00034028091E8008E778093E80008952091CB
:1008B00012012223C9F020910B0227FF15C0E62F59
:1008C000E695E695E695EE31D8F4E80FF92FF11D9F
:1008D000677021E030E001C0220F6A95EAF72095A9
:1008E0008281282322830895FC0132960896219163
:1008F000621303C0DF0111971C92E817F907B9F7DB
:100900000895209112012223C1F020910B0227FFAC
:1009100014C0E62FE695E695E695EE31F8F4E80F7B
:10092000F92FF11D677021E030E001C0220F6A95B8
:10093000EAF78281822B82830895FC0132962FEFA1
:1009400030E04191641751F02F3F19F4411101C07B
:10095000232F3F5F3630A9F72F3F09F40895820F08
:10096000911D27FD9A95FC0162830895CF92DF9235
:10097000EF92FF926C01EE24FF2420E0C114D10419
:10098000E104F10419F0C701B60120E1C72ED82E09
:10099000E92EFF24C114D104E104F10419F0285F09
:1009A000C701B6016B017C0154E0F694E794D7943B
:1009B000C7945A95D1F7C114D104E104F10419F098
:1009C0002C5FC701B6016B017C0142E0F694E7940D
:1009D000D794C7944A95D1F7C114D104E104F10426
:1009E00019F02E5FC701B6019695879577956795A3
:1009F000672B682B692B09F02F5F822FFF90EF90F8
:100A0000DF90CF9008958091F20181111092F20150
:100A100008958091F1019091F001892B9091EF015F
:100A2000892B809350019091F2019923A1F0892B99
:100A30008093500180911201882341F180910B0233
:100A400087FF24C08EE1E2E5F1E090E0815000F5FF
:100A500091110E940305E0910D02F0910E02309772
:100A6000E1F080911201882359F080910B0287FFF9
:100A700007C0809150018093510185E0809350011F
:100A80000280F381E02D80E591E0099486E0DBCFE0
:100A900021912223D9F29F5FD9CF0895E92FEE0F3C
:100AA000E90FEE0F8E0F982F977086958695869595
:100AB00025E0829FF0011124E954FE4F50E040E010
:100AC00080E0219130E0092E02C0369527950A94E6
:100AD000E2F721703327042E01C0220F0A94EAF7AF
:100AE000822B4F5F5F4F4530510559F70895E92F2D
:100AF000EE0FE90FEE0F8E0F982F977041E001C0B7
:100B0000440F9A95EAF786958695869595E0899F94
:100B1000F0011124E954FE4F30E020E070E05191E3
:100B2000DF011197CB01022E02C0969587950A949A
:100B3000E2F7817081958527842385278C932F5F29
:100B40003F4F2530310559F708958091B6019091B6
:100B50008501981301C008958F5F8770FACF8823AD
:100B600041F080959091F10189238093F1010C94DB
:100B700009050895882339F09091F101982B9093FD
:100B8000F1010C940905089520917C0130917D01BB
:100B90002817390771F090937D0180937C01E091D3
:100BA0000D02F0910E02309721F00084F185E02DC6
:100BB0000994089520917A0130917B012817390713
:100BC00071F090937B0180937A01E0910D02F09196
:100BD0000E02309721F00680F781E02D09940895E8
:100BE0001092F0011092EF010E94090590E080E060
:100BF0000E94DA0590E080E00C94C4056093F30154
:100C00007093F4018093F5019093F6010C94F00534
:100C1000882379F19CEF980F913A38F4682F80E59A
:100C200091E00E9457040C94090590E2980F9830C7
:100C300088F4877021E030E0A90102C0440F551FFD
:100C40008A95E2F7CA0180959091F10189238093FA
:100C5000F101E9CF9BE5980F933020F490E080E01C
:100C60000C94DA05885A873120F490E080E00C94E7
:100C7000C4050895CF93C82F882309F467C08CEF6B
:100C80008C0F813AC0F580911201882311F1809177
:100C90000B0287FF1EC0EC2FE695E695E695F0E087
:100CA000E05BFE4F828190E04C2F477021E030E006
:100CB00002C0220F331F4A95E2F782239323892B28
:100CC00091F06C2F80E591E00E9457040E94090585
:100CD0000AC0E2E5F1E088E591E02191C21789F3CD
:100CE0008E179F07D1F76C2F80E591E00E94810459
:100CF000CF910C94090580E28C0F883068F4C7709E
:100D000021E030E001C0220FCA95EAF78091F1019D
:100D1000822B8093F101ECCFEBE5EC0FE33040F454
:100D2000F0E0E15EFE4F808190E0CF910C94DA0517
:100D3000C85AC73158F4EC2FF0E0EE0FFF1FEE5DFC
:100D4000FE4F80819181CF910C94C405CF9108957D
:100D5000E0910D02F0910E02309721F00190F081A8
:100D6000E02D099480E0089590910B0292FF06C057
:100D7000282F28712830F9F4877F846093FF06C0FC
:100D8000282F28712831F1F4877E846120910C028C
:100D900020FF06C0382F38713830D9F4877F816042
:100DA00021FF06C0282F28712831D1F4877E816168
:100DB00094FD877E0895282F24712430F9F68B7FC7
:100DC0008860DCCF282F2471243101F78B7E886165
:100DD000DDCF382F3171313019F78E7F8860E0CF49
:100DE000282F2171213121F78E7E8861E1CFCF93A9
:100DF000DF93972F70E026E0929F600D711D112404
:100E0000FB0134E5839FE00DF11D1124EE0FFF1F60
:100E1000E455FF4FC591D491CE01C238D105B9F147
:100E2000E8F5C133D10509F499C050F5C932D105AF
:100E300009F48DC0CA32D10509F497C0C11542E545
:100E4000D40708F0B6C0C11521E5D20708F024C1C7
:100E5000C83ED10508F09DC0C03ED10568F5C83A2E
:100E6000D10508F089C0C53AD10508F0EDC0C13000
:100E7000D10511F1209709F443C02497E8F440C04C
:100E8000C533D10509F45CC0C933D105B9F6209149
:100E90000B02237089F080EE90E00EC0C33ED105B6
:100EA00091F168F4C03ED105F9F0C23ED10531F6AA
:100EB00020910B0222FD20C0DF91CF910895C63E04
:100EC000D10561F1C73ED10581F1C43ED10509F0DC
:100ED000B5CF20910C0221FFEFCF80910B0284FD52
:100EE0000FC087EE90E0E8CF20910B0220FD01C1FA
:100EF00030910C0230FFE0CF83EE90E024FFDCCF96
:100F000090E080E0D9CF20910B0222FDF5C0309116
:100F10000C0230FDC0CF24FFCFCFF2CF20910B02C7
:100F200023FFCACF24FDECCFDCCF20910B0223FDA1
:100F3000E6C030910C0231FFEECF84EE90E0BCCFE2
:100F400020910B0225FFB8CF89E290E0B5CF209128
:100F50000B0225FFB1CF85E390E0AECF20910B02CD
:100F600026FFAACF8AE290E0A7CF20910B0226FFAE
:100F7000A3CF81E390E0A0CFCF3BD10508F6C85ABC
:100F8000D0E0CC0FDD1FCE5DDE4F88819981946467
:100F900093CFC11530E5D30708F062C0C11540E416
:100FA000D40708F059C0DA95C115DF4108F484CFA1
:100FB000A7CFC11536E5D30718F5C11545E5D40708
:100FC00008F080C0C11584E5D80708F076C09C2FD2
:100FD00096959695AE0143705527C115D34508F4F3
:100FE00060C021E030E002C0220F331F4A95E2F7D3
:100FF00040E2949FC0011124822B932B9A685CCF0E
:10100000C1153AE5D30778F4C11549E5D40708F0CE
:1010100063C0C11588E5D80708F472CF9C2F8827D4
:10102000806F906A49CFCE0190568115904208F0AA
:1010300067CF8D2F8F710E94B40690E0982F88277C
:1010400088279F718C2B46C0C55AD0E0C15EDE4F09
:10105000888190E0906430CFCE019F70906A2CCF51
:101060009E01E4E036952795EA95E1F723708C2FF1
:1010700086958695837030E2839FC0011124922B60
:10108000C37021E030E002C0220F331FCA95E2F79F
:10109000822B932B9C6810CF9C2F8827816F906A9E
:1010A0000BCF21E030E002C0220F331F4A95E2F758
:1010B00040E2949FC0011124EBCF9C2F8827846FBE
:1010C000906AFACE8C2F0E94B40690E0982F882761
:1010D00088279F719062F0CE8C2F8F700E94B4068B
:1010E00034E0D695C7953A95E1F7CF709C2F90697B
:1010F000E3CE89E390E0E0CE82EE90E0DDCE86EEB6
:1011000090E0DACEBF92CF92DF92EF92FF920F93F0
:101110001F93CF93DF938C01C0902E02D0902F02AB
:10112000E0903002F09031028091F3019091F4014F
:10113000A091F501B091F601C82AD92AEA2AFB2A22
:10114000CFE1D0E0BC2ED701C6010C2E04C0B6956D
:10115000A795979587950A94D2F780FD0EC02197A1
:1011600088F7B12C8B2DDF91CF911F910F91FF90BC
:10117000EF90DF90CF90BF900895B8018C2F0E9420
:10118000F706019761F3EECFCF93DF93EC010E9456
:101190008208BE01DF91CF910C94F7060E94C4082B
:1011A000292F2F7092959F7092509E3078F4E92FDE
:1011B000F0E0ED53F14E0C94481D803F19F020F4FF
:1011C000883E20F481E00895843FE1F380E00895B3
:1011D000883EC0F3813FD1F7F5CF822F8695869563
:1011E0008695089527982F98089526982E98089503
:1011F00025982D98089556985E980895279A2F9AC5
:101200000895269A2E9A0895259A2D9A0895CF9298
:10121000DF92EF92FF92CF936B017C010E94B604A4
:10122000C82F0E94FB080E94F8080E94F5080E943F
:10123000F208C150C73040F4EC2FF0E0EF52F14E0D
:101240000C94481D0E940409C701B601CF91FF907C
:10125000EF90DF90CF9008950E9404090E94010949
:10126000F3CF0E9404090E94FE08EECF0E940409F9
:101270000E940109F8CFCF92DF92EF92FF92CF93B5
:10128000DF9300D000D0CDB7DEB70E9407096B0115
:101290007C0180913202882321F0809133028111F8
:1012A00015C0C0922E02D0922F02E0923002F0922E
:1012B00031020E94F0050F900F900F900F90DF9178
:1012C000CF91FF90EF90DF90CF900895198282E048
:1012D0008A83C701B6010E94B6048B838EEF8C838C
:1012E00064E0CE0101960E943F04DBCF0F931F9371
:1012F00041E050E060E070E004C0440F551F661FFD
:10130000771F8A95D2F7CB01BA01609570958095C9
:10131000909500912E0210912F0220913002309171
:10132000310260237123822393231F910F910C9428
:101330003B099091EE01809589238093EE01282F3F
:10134000277071F4282F082E000C330B9217130608
:1013500039F08595859585950E9476091092EE0164
:1013600008950F931F9341E050E060E070E004C0E7
:10137000440F551F661F771F8A95D2F780912E0262
:1013800090912F02A0913002B09131028A019B010D
:10139000082B192B2A2B3B2BC901B8011F910F9148
:1013A0000C943B09209828982198299822982A98EB
:1013B00023982B9852985A9853985B983E98469841
:1013C00008958098889A8198899A84988C9A8598AB
:1013D0008D9A86988E9A87988F9A0895CF93DF93E7
:1013E00000D00F92CDB7DEB790915A02943019F524
:1013F00089837B836A8382E08093E9008FEF9091F9
:10140000E800815095FD06C095ED9A95F1F7000032
:101410008111F5CF8091E80085FF0DC050E040E0DC
:1014200063E070E0CE0101960E94A0028091E80086
:101430008E778093E8000F900F900F90DF91CF91FF
:101440000895BC0184E00C94EE09BC0183E00C9487
:10145000EE09CF93DF93EC01809112018823B1F163
:1014600080910B0287FF32C060E282E08093E90046
:101470008FEF9091E800815095FD06C095ED9A950B
:10148000F1F700008111F5CF8091E80085FF1BC0C6
:101490008091120170E050E040E0811104C050E002
:1014A00040E068E070E0CE010E94A0028091E80078
:1014B0008E778093E80080E2FE01A8E3B2E001901D
:1014C0000D928A95E1F7DF91CF91089568E081E070
:1014D000CDCFEF92FF920F931F93CF93DF930E9494
:1014E000FB080E94F8080E94F5080E94F20888E8AC
:1014F000E82EF12C8FEF90E0F701918380830AE8CA
:1015000010E0F80191838083CCE8D0E09983888350
:101510000E940409FFEF20E782E0F1502040804064
:10152000E1F700C000000E9401099FEFE0E7F2E050
:101530009150E040F040E1F700C000000E94FE083A
:101540002FEF80E792E0215080409040E1F700C00B
:1015500000000E94F808EFEFF0E722E0E150F040D1
:101560002040E1F700C000000E94F5088FEF90E7EF
:10157000E2E081509040E040E1F700C000000E94AE
:10158000F2088091F9018770FFEF8F9FC00111244D
:1015900095958795959587959927F70191838083F0
:1015A000F80191838083998388830E94FB080E94BD
:1015B000F8080E94F508DF91CF911F910F91FF90DD
:1015C000EF900C94F208CF9384E090E00E944E1DBF
:1015D000C82F81E290E00E944E1D982F8C2FCF9152
:1015E00008956FEE7EEF90E080E00E94801D60E045
:1015F00082E090E00E94621D60E083E090E00E9443
:10160000621D1092F3011092F4011092F5011092F4
:10161000F60160E084E090E00E94621D60E081E2FB
:1016200090E00E94621D60E085E090E00E94621DF3
:1016300060E086E090E00E94621D6FEF87E090E03E
:101640000E94621D40E050E0BA0188E090E00E94F4
:10165000741D60E08DE090E00E94621D40E050E06B
:10166000BA0188E190E00E94741D60E087E190E09B
:101670000E94621D40E050E0BA018CE190E00E94BF
:10168000741D60E080E290E00E94621D40E050E046
:10169000BA0188E190E00E94741D1092F901109245
:1016A000FA011092FB011092FC0184E080618093AA
:1016B000F9014091F9015091FA016091FB0170919B
:1016C000FC018FE090E00E94741D40E050E0BA0100
:1016D00083E190E00C94741D1092F101809112014D
:1016E000E2E5F1E0882359F080910B0287FF07C003
:1016F0008EE1DF011D928A95E9F70C94F00586E0F2
:10170000F8CF1F93CF93DF93CDB7DEB7AA970FB66D
:10171000F894DEBF0FBECDBF8CE592E02091F100C2
:10172000FC012193CF01F2E084369F07B9F7809145
:101730005D02893009F444C018F5823009F4B7C05D
:10174000833009F46CC0813031F580915C02813ABC
:1017500011F58091E800877F8093E8008091600216
:1017600090916102892B41F560E288E392E070E09C
:101770000E94DD038091E8008B778093E8000BC026
:101780008B3009F469C008F481C0823409F4A0C028
:10179000853409F4BAC08091E80083FF4BC2809180
:1017A0005C0290915D029A3008F044C2E92FF0E0AB
:1017B000E852F14E0C94481D60E090E080E0D7CFF5
:1017C00080915C02813239F78091600290916102D0
:1017D000029708F78091E800877F8093E800809166
:1017E000E80082FF17C09091F3008091F200029709
:1017F00029F48091F1008B7F813021F48091F100F8
:10180000809337028091E8008B778093E8000E94F4
:10181000CC02C1CF80915A028111E1CFBCCF80911F
:101820005C02813A09F0B7CF809160029091610229
:10183000892B09F0B0CF8091E800877F8093E80082
:101840008091E80080FFFCCF809112018093F1002D
:101850008091E8008E77D9CF80915C02813209F0C7
:101860009ACF8091600290916102892B09F093CF09
:101870008091E800877F8093E8000E94CC028091ED
:101880005E02809312010E946C0B85CF80915C02F6
:10189000813209F080CF8091E800877F8093E80053
:1018A0000E94CC0280915F028093360274CF8091B7
:1018B0005C02813A09F06FCF8091E800877F8093C6
:1018C000E8008091E80080FFFCCF80913602BECF17
:1018D00080915C02803C09F05ECF80916002909123
:1018E0006102029739F580915E0290915F02892B27
:1018F00009F58091E800877F8093E8006BE170E054
:101900008EEA92E00E947E0382CF80915C02803C4E
:1019100009F041CF8091600290916102079751F4E4
:101920008091E800877F8093E80062EB70E08CEFA5
:1019300091E0E8CF8091EB0080628093EB002BCFA9
:10194000803899F0823809F075C1809160028F70FB
:10195000873008F06FC18093E9008091EB0085FB30
:10196000882780F91092E90006C080915802909172
:101970005902911182609091E800977F9093E8005E
:101980008093F1001092F1008091E8008E774EC1B3
:10199000882309F43CC1823009F04CC180915E0279
:1019A00081113FC1809160028F702FEF280F263088
:1019B00008F040C18093E9002091EB0020FF31C185
:1019C000933031F48091EB0080628093EB0029C169
:1019D0009091EB0090619093EB0021E030E001C02A
:1019E000220F8A95EAF72093EA001092EA0080918C
:1019F000EB008860EACF81111DC110915E021F7754
:101A00008091E3008078812B8093E3008091E8004F
:101A1000877F8093E8000E94CC028091E80080FFDD
:101A2000FCCF8091E30080688093E30082E0111195
:101A300083E080935A02FEC08058823008F0FAC0DA
:101A400080915E0290915F028C3D23E09207A1F5A8
:101A500083E08A838AE289834FB7F894DE01139684
:101A600020E03EE051E2E32FF0E050935700E49194
:101A700020FF03C0E295EF703F5FEF708E2F90E084
:101A8000EA30C0F0C7968D939D932F5F243159F7AC
:101A90004FBF8091E800877F8093E8006AE270E0A2
:101AA000CE0101960E94DD038091E8008B77809340
:101AB000E800C0C0C096E7CF40916002509161023B
:101AC000292F33272330310551F1A0F4213031057E
:101AD00009F452C062E570E087E793E022303105F7
:101AE00009F0A8C02091E800277F2093E8000E9419
:101AF0007E03DACF2132310539F12232310581F10D
:101B00002F30310509F096C0EBE2F4E0649170E00B
:101B100089E294E06115710509F48CC0E3CF99273F
:101B20008130910571F0009731F0029709F082C081
:101B3000EBEDF3E002C0E5E2F4E0649170E0CF0188
:101B4000E9CFE3EFF3E0F9CF41155105D1F0413092
:101B5000510509F06FC069E070E082EA93E0C2CFFE
:101B60004115510599F04130510509F063C06DE60A
:101B700070E08AEC92E0B6CF62E170E089EC93E02D
:101B8000B1CF69E070E089E893E0ACCF60E470E049
:101B900087E393E0A7CF803809F04CC08091E8003C
:101BA000877F8093E80080915B028093F100ECCE08
:101BB000811140C010915E021230E0F58091E80082
:101BC000877F8093E80010935B020E94CC02112370
:101BD00011F084E005C08091E30087FDFACF81E039
:101BE00080935A0242E061EC81E00E94EB0242E203
:101BF00061EC82E00E94EB0242E361EC83E00E9430
:101C0000EB0242E360EC84E00E94EB0213C080919F
:101C10005E02813079F481E0933009F080E08093B6
:101C200059021092E9008091E800877F8093E800D4
:101C30000E94CC028091E80083FF0AC08091E800F6
:101C4000877F8093E8008091EB0080628093EB00B7
:101C5000AA960FB6F894DEBF0FBECDBFDF91CF912D
:101C60001F910895CF93C82F873070F5809106019A
:101C700090910701892B89F564E670E080E40E9469
:101C8000811C9093070180930601892BD1F464E6AF
:101C900070E082E10E94DD1C9093070180930601B1
:101CA000892B79F481E090E001C0880FCA95EAF7AA
:101CB00064E670E080950E94DD1C9093070180939C
:101CC0000601CF910C94301D8A30B9F040F4883071
:101CD00071F0893079F0209A2898CF9108958C304E
:101CE00091F070F08D30B9F73E9A4698F6CF219A70
:101CF0002998F3CF229A2A98F0CF239A2B98EDCFE8
:101D0000529A5A98EACF539A5B98E7CF80E290E0D4
:101D100090930701809306018091700181110EC09C
:101D20000E947B1C81E0809370012FEF83ED90E394
:101D3000215080409040E1F700C0000064E670E070
:101D400080E40E94811C9093070180930601892BF7
:101D500009F04EC064E670E080E00E94DD1C9093C4
:101D6000070180930601892B09F042C064E670E008
:101D700080E00E94DD1C9093070180930601892B6F
:101D8000B9F564E670E08FE30E94DD1C90930701D3
:101D900080930601892B61F50E94301D64E670E096
:101DA00080E40E94811C9093070180930601892B97
:101DB000F9F464E670E08CE00E94DD1C909307016A
:101DC00080930601892BA1F464E670E080E00E9414
:101DD000DD1C9093070180930601892B49F464E68A
:101DE00070E08FE30E94DD1C909307018093060151
:101DF0000E94301D809106010895CF93873050F5E1
:101E00008091060190910701C0E0892B71F464E68E
:101E100070E081E40E94811C909307018093060189
:101E2000892B31F0C0E00E94301D8C2FCF91089596
:101E300084E690E00E940C1D97FF05C09093070177
:101E400080930601EFCFC82FC09510920701109222
:101E50000601E9CFCFB18FB1869586958C73C3709B
:101E60008C2BC82FC095E1CF1F920F920FB60F9207
:101E700011242F933F934F935F936F937F938F938F
:101E80009F93AF93BF93CF93DF93EF93FF93D09143
:101E9000E900DF708091EC00C82FC17080FDC0E8C0
:101EA0001092E9008091F000877F8093F000789491
:101EB0000E94810B1092E9008091F000886080936D
:101EC000F000CD2BCF70C093E900FF91EF91DF912F
:101ED000CF91BF91AF919F918F917F916F915F91C2
:101EE0004F913F912F910F900FBE0F901F9018951B
:101EF0001F920F920FB60F9211242F933F934F937F
:101F00005F936F937F938F939F93AF93BF93EF9361
:101F1000FF938091E10082FF09C08091E20082FF7F
:101F200005C08091E1008B7F8093E1008091DA0011
:101F300080FF24C08091D80080FF20C08091DA000B
:101F40008E7F8093DA008091D90080FF9BC080E172
:101F500089BD82E189BD09B400FEFDCF81E0809397
:101F60005A0280913502811109C00E9450020E94DC
:101F70001D038091E20084608093E2008091E10083
:101F800080FF17C08091E20080FF13C08091E200C3
:101F90008E7F8093E2008091E20080618093E20076
:101FA0008091D80080628093D80019BC85E080932E
:101FB0005A028091E10084FF29C08091E20084FFF1
:101FC00025C080E189BD82E189BD89B5982F9170D6
:101FD00080FFFBCF8091D8008F7D8093D8008091C7
:101FE000E1008F7E8093E1008091E2008F7E8093FC
:101FF000E2008091E20081608093E20080915B02C8
:10200000882309F445C084E080935A028091E1005E
:1020100083FF27C08091E20083FF23C08091E1000D
:10202000877F8093E10082E080935A0210925B02E6
:102030008091E1008E7F8093E1008091E2008E7FAD
:102040008093E2008091E20080618093E20042E0B0
:1020500060E080E00E94EB028091F0008860809355
:10206000F000FF91EF91BF91AF919F918F917F9180
:102070006F915F914F913F912F910F900FBE0F90F5
:102080001F90189519BC10925A021092350276CF03
:102090008091E30087FD93E090935A02B7CF789444
:1020A0001F921FB61F9211248F939F93AF93BF93DC
:1020B0008091640290916502A0916602B0916702DE
:1020C0000196A11DB11D8093640290936502A093B7
:1020D0006602B0936702BF91AF919F918F911F905D
:1020E0001FBE1F9018952FB7F894809164029091AD
:1020F0006502A0916602B09167022FBF08950F9309
:102100001F93CF93DF93C62FD42F022FFC01828120
:102110008823A1F060936A020E9473109093690271
:1021200080936802C77081E001C0880FCA95EAF702
:10213000DF91CF911F910F910C94BA0580916A02A3
:10214000681343C020916802309169024FB7F89438
:102150008091640290916502A0916602B09167023D
:102160004FBF821B930B883C910578F510E21D0F41
:102170006D17B9F080E2860F883040F4C77081E0B7
:1021800001C0880FCA95EAF70E94AF05183048F4DD
:1021900081E09D2F977001C0880F9A95EAF70E9401
:1021A000BA05802F0E943A06802F0E940806183038
:1021B00098F4D77081E001C0880FDA95EAF7DF91D3
:1021C000CF911F910F910C94AF05C77081E001C0B2
:1021D000880FCA95EAF7F3CFDF91CF911F910F9146
:1021E00008954F925F926F927F928F929F92AF92DB
:1021F000BF92CF92DF92EF92FF920F931F93CF93F4
:10220000DF9300D000D00F92CDB7DEB77C01FC0188
:1022100083819481892B39F01081D180812F8D2188
:102220008F3F09F0AEC40F900F900F900F900F905A
:10223000DF91CF911F910F91FF90EF90DF90CF90A2
:10224000BF90AF909F908F907F906F905F904F90D6
:1022500008950E948208082F682F89819A810E9420
:102260007705E12FF0E026E0D29EE00DF11D11246C
:1022700034E5039FE00DF11D1124EE0FFF1FE4551F
:10228000FF4F0591149180913202882321F08091B3
:102290003302811162C40A32FDE51F0709F08AC0CA
:1022A000F70182818823C9F18091F90191E0980FAB
:1022B0009770887F953008F4892B8093F90180917D
:1022C000F9018770FFEF8F9FC001112495958795C5
:1022D000959587959927909389008093880090938E
:1022E0008B0080938A0090938D0080938C004091A6
:1022F000F9015091FA016091FB017091FC018FE0AE
:1023000090E00E94741D60912E0270912F028091C6
:102310003002909131020E940709F70182818823DF
:1023200009F440C410926A020230FCE51F0708F469
:1023300062C106312CE5120738F098012B5F3C454D
:102340002730310508F057C10E94E30A90930C0230
:1023500080930B020F303CE5130709F42DC108F000
:10236000A7C008309CE5190709F410C108F07CC02B
:102370000430FCE51F0709F4FDC008F062C002301C
:102380003CE5130709F4EEC003301C4509F4EEC028
:1023900060910B0210910C0284E090E00E94621D9B
:1023A000612F81E290E00E94621D0E946C0B28C0A8
:1023B00081E1D9C3043F2CE51207A1F188F4093D5E
:1023C0008CE5180759F10A3D9CE51907B9F1083D5C
:1023D000ECE51E0709F0A1CF26E241EE61EE0DC04B
:1023E000063FFCE51F0731F108F127E245EE66EEF6
:1023F000073F3CE5130709F090CFC7010E947F100B
:102400008091EE01877009F40ECFF7018281882355
:1024100009F409CF82E00E94990905CF27E245EE31
:1024200065EEEBCF26E241EE60EEE7CF27E245EE28
:1024300064EEE3CF26E241EE62EEDFCF28E241E038
:10244000EFCF80910B02806106309CE5190709F4FB
:1024500047C080910B02886007301C4508F440C0DB
:1024600080910B0280623CC00B30FCE51F0709F431
:102470009BC068F409303CE5130709F48BC00A30AF
:102480001C4509F085CF80910B028C6029C080919A
:102490000B028B7F0D309CE5190711F180910B0227
:1024A0008D7F0E301C45E0F080910B02877F18C0B5
:1024B0000B3FFCE51F0709F461C060F502313CE504
:1024C000130709F481C078F400319CE5190709F479
:1024D00077C080910B028F7B01311C4509F058CFEA
:1024E00080930B0255CF0431FCE51F0709F47AC035
:1024F00008F470C005311C4509F04ACF80910B02E9
:1025000082FB992790F921E0922790FB82F990FBBA
:1025100083F9E6CF0E3F8CE5180709F449C070F443
:102520000C3FECE51E0771F180910C028E7F0D3F90
:102530001C4509F02DCF80930C022ACF01152DE503
:10254000120709F44BC060F101301D4509F020CF9E
:1025500080910C02982F909591708E7F892B90FB23
:1025600081F9E9CF80910B028160BACF80910B0293
:102570008260B6CF80910B028460B2CF80910C0252
:102580008160D9CF80910C028260D5CF80910B02FF
:102590008064A6CF0E946C0B80910B028068A0CF54
:1025A00080910C028360C7CF80910B028E7F98CF01
:1025B00080910C028D7FBFCF80910B028F7E90CFD8
:1025C00080910B028F7D8CCF0E946C0B80910B024F
:1025D0008F7786CF80910B02837F82CF80910C0210
:1025E0008C7FA9CF0E946C0B90910B02892F97FBD7
:1025F00087F9805875CF06319CE5190709F0E0C2CC
:102600008091F1018A7A91E009F490E090937E0143
:1026100069E2811165E380E591E00E9481040E94F6
:102620000905EECE0E94F10AEBCE8091340291E0D2
:10263000892780933402E4CEF70100811181882339
:1026400009F43DC0C8010E948208D82E682FC80135
:102650000E947705B8018D2D0E94F7068C01882E07
:10266000F701A580A2944FE0A422D280D11010924D
:10267000F0018091EE01877099F0DD2089F0812FC3
:10268000807F803421F080E2800F883048F082E043
:102690000E9499098091EE018770CC24C394811126
:1026A000C12CB12EB2943FE0B322FBE0FB1508F43D
:1026B00040C0EB2DF0E0EE51F14E0C94481DC801E6
:1026C0000E944E05D82EC6CF212F2F70A22E107F2C
:1026D00019F0A29420EFA222DD20C9F0AA2069F00F
:1026E00080E2800F883010F081100BC08091F101E2
:1026F000A82AA092F1010E940905802F0E943A06A3
:1027000018C08091F001A82AA092F001F4CF802F88
:102710000E940806AA2069F0A094005E083010F01C
:10272000811046C08091F101A822A092F1010E947F
:1027300009052B2D2850330B2430310510F40E944D
:10274000A806CC20A9F08091EE0180FD11C0F70110
:1027500012828595859585950E94B109C7010E94D1
:10276000F1108091EE018595859585950E947609F9
:1027700085E0F701DE01119601900D928A95E1F74F
:1027800089819A810E944E059A81E981F0E026E0D4
:10279000929FE00DF11D112434E5839FE00DF11DA2
:1027A0001124EE0FFF1FE455FF4F859194913BCD0F
:1027B0008091F001A822A092F001B9CF312F3F7093
:1027C000932E107F103219F0929490EF9922882066
:1027D00041F081E0881631F1DD2079F1AA2041F144
:1027E0008CCFDD2091F09091F201892F8929A110E1
:1027F00003C00E94BA059DCFE1E0AE12FACF981750
:1028000009F497CF8093F20194CFA11006C00E94E3
:102810000305892D0E94AF058CCFF1E0AF1609F4B6
:1028200088CFF5CFDD2031F021E02A1508F481CFE3
:10283000892DDFCFA1107DCFECCFAA2051F339E352
:10284000831284C18FEF97EEE3E081509040E04027
:10285000E1F700C000007AC1812F869586958370CC
:1028600061F0813009F065CFC8019370D11002C0CA
:1028700090E080E00E94C4055CCFC8019370D11045
:1028800002C090E080E00E94DA0553CF812F837070
:1028900009F066C0D1104DCF802F82958695877044
:1028A000880F880F602F6F70462E512C712C612C71
:1028B000082E04C0440C551C661C771C0A94D2F7E1
:1028C00040E050E0BA0104FF0FC04FE050E060E08C
:1028D00070E004C0440F551F661F771F8A95D2F71A
:1028E0004095509560957095812F8695869583705B
:1028F000823019F1D8F40091F3011091F401209184
:10290000F5013091F601813069F044295529662995
:102910007729CB01BA0160237123822393230E947C
:10292000FE0507CF402A512A622A732ACB01BA0139
:102930006429752986299729F2CF442955296629C2
:1029400077290091F3011091F4012091F501309164
:10295000F601CB01BA016027712782279327DFCFC9
:102960008695DD2011F0812F8170882309F4E1CE56
:10297000802F829586958770880F880F602F6F70E3
:10298000462E512C712C612C082E04C0440C551C71
:10299000661C771C0A94D2F740E050E0BA0104FFAD
:1029A0000FC04FE050E060E070E004C0440F551FDE
:1029B000661F771F8A95D2F7409550956095709560
:1029C000812F869586958370823019F1D8F4009115
:1029D0002E0210912F02209130023091310281306D
:1029E00069F04429552966297729CB01BA0160236A
:1029F0007123822393230E943B099BCE402A512AB4
:102A0000622A732ACB01BA0164297529862997297C
:102A1000F2CF442955296629772900912E02109179
:102A20002F022091300230913102CB01BA01602790
:102A3000712782279327DFCF1F70DD2029F0812F98
:102A40000E94B109802FD5CE802F0E94AF05812F23
:102A50000E9476096ECE802FF2EF8F1609F44EC0D9
:102A6000F81578F020EF821619F131EF831609F48A
:102A70003DC0DD2009F465C0A1103FCE812F8F71CC
:102A80003AC093EF891609F43EC0E4EF8E12F1CFFD
:102A9000DD2009F44BC01F71812F0E94B10928E08D
:102AA000129FC001112483608093EE01812F23C007
:102AB000DD20B9F0A1103DCE1F7161E070E080E033
:102AC00090E004C0660F771F881F991F1A95D2F7F0
:102AD00000912E0210912F0220913002309131028C
:102AE000A6CFF1E0FA1508F424CEE6CF812F8F713E
:102AF000DD2009F4ADCF0E94B1091BCE812F8F716B
:102B0000DD20C9F3A5CF60E070E0CB01DD2009F442
:102B100072CF1F7161E070E080E090E004C0660F4A
:102B2000771F881F991F1A95D2F765CF81E00E9401
:102B3000990931E03A1508F0FCCD82E00E9499092C
:102B4000F8CDAA2039F0893309F47CCE802F0E9479
:102B50000806EFCD812F8F717BCF1982F70182811B
:102B6000811126CC82E18A83F70180818B83818168
:102B70008C838EEF8D8365E0CE0101960E943F0429
:102B80008ACB85E0DE01119601900D928A95E1F7DE
:102B9000F701228189819A8121115BCB0E944E0528
:102BA000082F5FCB06311C4509F046CD80917E0190
:102BB00069E2811165E380E591E00E9457042FCD21
:102BC0000F3D2CE5120709F42DCD09303DE5130723
:102BD00009F42BCD01151C4509F02ECD0E946C0B7C
:102BE000EFEFF4E32CE0E150F0402040E1F700C0CB
:102BF0000000F89481E08093E00080E28093D800A8
:102C00001092C9008FE19EE40197F1F700C0000027
:102C10001DBA109268001CBC10BE1FBA10927A0038
:102C200010926E0010926F0010927100109272005C
:102C30001092C9001092BC0014B817B81AB81DB889
:102C400010BA1092BC0015B818B81BB81EB811BA4B
:102C50000C94003FD5CB1F93CF93DF9380918401D9
:102C6000807FA9F480918101882389F08091B60149
:102C7000D091850160917F0170918001A0918201C6
:102C8000B0918301C62FC72316E0D81304C0DF918B
:102C9000CF911F91089590E0109711F0CF3F19F454
:102CA00001968770F2CF189F9001199F300D112463
:102CB000F901EA57FE4F41814713F2CF4081461395
:102CC000EFCF42814111ECCF438154814A1B5B0B12
:102CD000483C510528F7809184018F708061809372
:102CE0008401F901E557FE4F80818F7080618083F8
:102CF0008FE791E00E94F110DF91CF911F910C942A
:102D0000A505AF92BF92CF92DF92EF92FF920F9301
:102D10001F93CF93DF93CDB7DEB761970FB6F894CB
:102D2000DEBF0FBECDBF8C0185E0F801DE011D9630
:102D300001900D928A95E1F7F80180819181E280FE
:102D40002FE7A22E21E0B22E6091820170918301C3
:102D50006115710509F43EC130917F0140918001F8
:102D6000232F24232F3F09F435C1C380D480F09052
:102D70008101F601E61BF70BFF2009F4FBC020914F
:102D80008401522F507FE83CF10508F0BBC051117F
:102D900078C0FE2C491321C038131FC0E1101DC09C
:102DA0002F70206120938401C5010E94F110809151
:102DB0008401F80185838F2D61960FB6F894DEBFEC
:102DC0000FBECDBFDF91CF911F910F91FF90EF907C
:102DD000DF90CF90BF90AF900895CD2829F0282F95
:102DE00029232F3F09F014C120E0F22FF170DF2ECC
:102DF00020FF3DC02091B6014091850156E024138B
:102E000015C08D879E878D859E850E94C408292FB9
:102E100022952F702230F8F0243020F59F70F9F0C1
:102E2000F8019581907FD9F4D12C1FC030E0529FDA
:102E3000F001539FF00D1124EA57FE4F6181961364
:102E400006C06081861303C06281E61210C02F5F46
:102E50003F4F2770D4CF9F7011F0882329F3805EF5
:102E6000883010F3C8010E94F110FD2CA4CFEE2091
:102E700009F4A1CF80918401816080938401F12CB9
:102E80009ACF491312C0381310C0E1100EC0F801D8
:102E90002583C8010E94F11086E0F801AFE7B1E098
:102EA00001900D928A95E1F786CF8D879E878D855B
:102EB0009E850E94CE08882309F1EE20F9F08091CA
:102EC0008401803270F020917F0130918001388739
:102ED0002F831986DB86CA868C87CE0107960E94CF
:102EE000F11086E0F801AFE7B1E001900D928A950C
:102EF000E1F70E942B16FF24F3945DCFC8010E94D6
:102F0000F110F9CF51110AC08FE791E00E94F11042
:102F100086E0F50111928A95E9F7B1CF49130FC008
:102F200038130DC0E1100BC0F8012583C8010E94C1
:102F3000F11086E0F50111928A95E9F73CCF8D8773
:102F40009E878D859E850E94CE088823B9F2EE204B
:102F5000A9F280918401803220F220917F0130918A
:102F600080013A8329831B82DD82CC828E83CE014D
:102F70000196B5CFE83CF105E0F6FE2CEE2009F411
:102F8000BDCF491316C0381314C08091840180FD51
:102F900083CF982F907F09F47FCFF8018583903FEE
:102FA00009F477CF982F907F905F8F70892B85835E
:102FB00070CF8D879E878D859E850E94CE0881115A
:102FC00090CF80918401816080938401C8010E9428
:102FD000F110F1CEEE2009F491CF8D879E878D857B
:102FE0009E850E94CE08F82E882309F487CF86E0BC
:102FF000F801AFE7B1E001900D928A95E1F7809179
:103000007F01909180010E94C4080E942B16D3CEAC
:1030100021E02E25EACE1F93CF93DF93CDB7DEB705
:1030200067970FB6F894DEBF0FBECDBF4B8B5C8B9E
:103030006D8B7E8B8F8B1A8A198A85E0FE017396C1
:10304000DE011D9601900D928A95E1F786E0FE0162
:103050003D96DE01179601900D928A95E1F7CE011B
:1030600007960E948116811112C086E0FE013796F4
:10307000DE01119601900D928A95E1F78A859B8574
:10308000892B29F08F81988589238F3FB1F516E030
:103090008091B6019091850189131DC067960FB686
:1030A000F894DEBF0FBECDBFDF91CF911F91089581
:1030B00096E0929FD001939FB00D1124AA57BE4F66
:1030C000FE01319601900D929A95E1F7809385016A
:1030D0000E94A505DCCF819FC00111248A579E4F15
:1030E0000E9481168823D1F28091B60190E001966A
:1030F000877099278093B601CBCF2091850130E06E
:10310000C9010196877099274091B60148171906A1
:1031100079F60E946C0B109285011092B60186E040
:10312000EFE7F1E0DF011D928A95E9F7B0CF8F92CA
:103130009F92BF92CF92DF92EF92FF920F931F93D5
:10314000CF93DF938091060190910701892B91F035
:10315000809171018F5F8093710181110BC00E947A
:10316000860E90E09093070180930601892B11F45D
:103170000E94690A2DEF822E21E0922E740110E048
:1031800000E097E0C92EC00E802F0E94320E8C2DD9
:103190000E94320E802F0E94FD0EE70199917E0160
:1031A000D12C891729F0FE0131978083DD24D39437
:1031B0008C2D0E94FD0EF7019681891709F47AC0C3
:1031C000868381E08D29182B0E94D2090F5F07307A
:1031D000C1F60E9473106091730170917401909315
:1031E0007401809373012091720130E0261B370B2C
:1031F000820F931F6BEF70E00E94341DE82E392F71
:10320000082F80937201F0907601FF2009F4A3C08B
:1032100010927601E091F701F091F801AF01425F61
:103220005F4F20E08BEFB82E6BEF70E0A191AB3FCA
:1032300099F0CA2ED12C8E2D932F0A17E8F18C19F4
:103240009D09092E000CAA0BBB0B4E97A105B105D9
:10325000C8F1DF011197BC92E417F50739F7209305
:103260007601111102C0211178C010927501A09150
:10327000F701B091F80190917601E0E1F2E080E091
:103280003191E40129914E01321751F03C913B3FBD
:10329000D9F40C93AF0141505109EA01288391E020
:1032A0001196D2E0EE31FD0759F7909376018093A5
:1032B000750157C080E086CFDB01AC19BD098A0FCC
:1032C0009B1FBFCF2F2DC8CF81E0EACF9170892BF4
:1032D00009F458C080917801909179018130984724
:1032E00080F01092340260912E0270912F02809132
:1032F0003002909131020E940709109279011092D8
:1033000078018091780190917901019690937901EB
:1033100080937801812FDF91CF911F910F91FF90C2
:10332000EF90DF90CF90BF909F908F9008950E9474
:1033300001092EC0892B71F3109279011092780146
:1033400060912E0270912F02809130029091310293
:103350000E940709DFCF111188CF8091750181117B
:1033600084CF8091780190917901209134022223B9
:1033700009F3009709F0AACF0E94F8080E94F50807
:103380000E94F208C0917701CC2389F20E94F508CF
:1033900081E0C827C09377019DCFCDB7DEB7C9556F
:1033A000D1090FB6F894DEBF0FBECDBF84B7877FBB
:1033B00084BF0FB6F894A8958091600088618093CF
:1033C0006000109260000FBE80E890E00FB6F894A5
:1033D00080936100909361000FBE85B7806885BFC0
:1033E00085B7806885BF0E9450020E941D038091AE
:1033F000E20084608093E200789480915A028823EE
:10340000A1F01091E9001F709091EC00892F81705C
:1034100090FD80E8182B1092E9008091E80083FD70
:103420000E94810B1F701093E90082E084BD93E03D
:1034300095BD9AEF97BD80936E000E94860E90E036
:1034400090930701809306010E94D2090E94E1092E
:10345000EDEFF1E0A0E1B2E011921D9222E0EB303D
:10346000F207D1F78EE090E00E94961D8093F7015D
:103470009093F801FC010E962BEF21938E179F0776
:10348000E1F790E080E00E945C1D8F3E9E4F11F0BE
:103490000E94F10A89EA8093800089E0809381008C
:1034A00024982C983F988AB18F7C8AB96E98479A55
:1034B0008BB180638BB9769A8FE090E00E94561DA5
:1034C0006093F9017093FA018093FB019093FC01E2
:1034D0006770FFEF6F9FB001112475956795759523
:1034E00067957727709389006093880070938B00AD
:1034F00060938A0070938D0060938C000E94690A2B
:1035000090E080E00E945C1D8F3E9E4F11F00E9473
:10351000F10A82E090E00E944E1D80931F020E94FB
:10352000E30A90930C0280930B0283E090E00E94E8
:103530004E1D682F70E090E080E00E94FE056091D3
:103540002E0270912F0280913002909131020E94E0
:10355000070988E091E090930E0280930D0298E1B4
:10356000C92ED12C80E192E02EE0E22EE80E31E46B
:10357000A32EB12CAC0EBD1E82E0A80EB11C809112
:103580005A02853069F480E4F82E00E112E180915E
:103590005A02853009F489C00E946C0B0E94A8066B
:1035A0000E949718E0E2F2E0A0E1B2E010E000E053
:1035B000302F8D912191281709F4C2C090E0FF248B
:1035C000F3942827422F4F2109F4B5C061969FAF8D
:1035D000619762963FAF62978F2191E009F490E086
:1035E00063969FAF63970E9473108160782F6596F2
:1035F0009FAF8EAF659761964FAD619762965FAD55
:10360000629763966FAD639765968FAD65970E94DD
:103610000B18F801E05EFD4F8081F826F0820E94D1
:10362000A80690911E02891721F00E94A806809397
:103630001E0280915A02843009F0A1CF8093E900E4
:103640008091E80082FF9BCF8091E80090E085FFA9
:1036500006C00E946F02882309F499C091E080910E
:10366000E8008B778093E800992309F488CF1981CB
:103670001111A9C080913402882309F4BFC01092AF
:10368000340281E08093330222961FAE2297239664
:103690001FAE23978EEF24968FAF249763E0CE0161
:1036A0008F5B9F4F0E943F046ACF80915A02843003
:1036B00009F110920F020FB6F894A895C09260001D
:1036C0000FBEF092600083B7817F846083BF83B7B1
:1036D000816083BF7894889583B78E7F83BF0FB650
:1036E000F894A895809160008861809360001092A2
:1036F00060000FBE80915902882309F448CF0E94D0
:10370000860E90E090930701809306010E94D209F3
:103710000E94E109E0E1F2E0119292E0EE31F90756
:10372000D9F70E949718E0E1F2E081918111A6C0DB
:10373000EE12FBCF2CCF9F5FFF0C963009F042CFEB
:103740000F5F1F4F0E30110509F032CF8FEF6696D5
:103750008FAF669767968FAF679768961FAE68972B
:103760000E9473108160782F6A969FAF8EAF6A9720
:1037700066964FAD669767965FAD679768966FAD33
:1037800068976A968FAD6A970E940B1848CF00E43D
:1037900010E0FE0131964F018091E80085FD0AC0DE
:1037A0008091E8008B778093E8000E946F02882365
:1037B00099F354CF8091F100F40181934F010150AE
:1037C000110951F74BCF1130C9F422961FAE229741
:1037D00023961FAF23978CE0E3E1F1E0D501019040
:1037E0000D928A95E1F78EEF60968FAF60976FE04C
:1037F000CE018F5B9F4F0E943F04C1CE8091330268
:103800008823D1F1123041F01330F9F081E0229693
:103810008FAF229761E043CF60912E0270912F020B
:1038200080913002909131020E94B60422961FAE20
:10383000229723961FAF239724968FAF24978EEF5E
:1038400025968FAF259764E02ACF8A81813041F099
:10385000882341F08230D1F681E08093320202C0A9
:103860001092320222961FAE229783E023968FAFEA
:10387000239780913202E0CF8FEFC9CF09BD19BDE8
:1038800009B400FEFDCF8091D8008F7D8093D800D1
:103890008091E00082608093E0008091E00081FDF3
:1038A000FCCF0E946C0B73CE1F921FB61F92112487
:1038B0008F939F93AF93BF9380910F02811113C099
:1038C0008091640290916502A0916602B0916702B6
:1038D0004196A11DB11D8093640290936502A0934F
:1038E0006602B0936702BF91AF919F918F911F9035
:1038F0001FBE1F9018951092B9008CE08093B800FD
:103900000895EF92FF920F931F93CF93DF93182F99
:10391000EB011092BC0084EA8093BC000E947310FB
:103920007C018091BC0087FF27C08091B900887F0F
:10393000883029F08091B900887F8031D9F51093C3
:10394000BB0084E88093BC000E9473108C018091BE
:10395000BC0087FF24C02091B900287F90E080E060
:103960002831B1F081E090E0203411F490E080E063
:103970009195819591090CC0CF3FDC0791F20E948F
:1039800073108E199F098C179D0758F28EEF9FEFC9
:10399000DF91CF911F910F91FF90EF900895CF3F4E
:1039A000DC07A9F20E947310801B910B8C179D07F6
:1039B00070F2ECCF8FEF9FEFEBCF0F931F93CF936E
:1039C000DF93EB018093BB0084E88093BC000E94EE
:1039D00073108C018091BC0087FF11C02091B90049
:1039E000287F81E090E0283211F490E080E091950A
:1039F00081959109DF91CF911F910F910895CF3F4C
:103A0000DC0741F30E947310801B910B8C179D07FC
:103A100008F38EEF9FEFEECF0F931F93CF93DF93BB
:103A2000EC0184E88093BC000E9473108C018091AB
:103A3000BC0087FF08C08091BB0090E0DF91CF9170
:103A40001F910F910895CF3FDC0789F30E947310F7
:103A5000801B910B8C179D0750F38EEF9FEFEECFDD
:103A600084E98093BC000895AA1BBB1B51E107C0E9
:103A7000AA1FBB1FA617B70710F0A61BB70B881FFE
:103A8000991F5A95A9F780959095BC01CD0108958D
:103A9000EE0FFF1F0590F491E02D0994F999FECFE8
:103AA00092BD81BDF89A992780B50895A6E1B0E04E
:103AB00044E050E00C94881DA8E1B0E042E050E002
:103AC0000C94881D262FF999FECF92BD81BDF89ADE
:103AD000019700B4021639F01FBA20BD0FB6F89452
:103AE000FA9AF99A0FBE08950396272F0E94631D34
:103AF0000E94621D252F0E94631D242F0C94631DBC
:103B00000196272F0E94631D0C94621DDC01CB01DE
:103B1000FC01F999FECF06C0F2BDE1BDF89A3196DD
:103B200000B40D9241505040B8F708950F931F9381
:103B3000CF93DF938230910510F482E090E0E09122
:103B40006D02F0916E0230E020E0B0E0A0E030972E
:103B500099F42115310509F447C0281B390B24308D
:103B60003105C0F58A819B816115710571F1FB01F9
:103B700093838283FE0111C04081518102811381B0
:103B800048175907F8F04817590799F4109761F04A
:103B900012960C93129713961C933296CF01DF91D5
:103BA000CF911F910F91089500936D0210936E02B3
:103BB000F4CF2115310519F04217530718F49A0173
:103BC000BD01EF01DF01F801C2CF90936E02809337
:103BD0006D02D0CFFE01E20FF31F8193919322502B
:103BE000310939832883DACF20916B0230916C023E
:103BF000232B41F4209102013091030130936C0298
:103C000020936B02209100013091010121153105B3
:103C100041F42DB73EB74091040150910501241B9A
:103C2000350B40916B0250916C024217530708F01C
:103C3000B5CF241B350B2817390708F4AFCFBC01CB
:103C40006E5F7F4F2617370708F4A8CF640F751FE4
:103C500070936C0260936B02FA01819391939ECFF3
:103C6000CF93DF930097E9F0FC0132971382128221
:103C7000C0916D02D0916E02DE0130E020E020970D
:103C8000A1F420813181820F931F20916B0230912A
:103C90006C022817390709F067C0F0936C02E093B3
:103CA0006B02DF91CF910895DA01AE17BF0708F0DC
:103CB00040C012964D915C9113979D01411551059D
:103CC00099F7D9011396FC93EE9312974D915D915C
:103CD000A40FB51FEA17FB0779F480819181029642
:103CE000840F951FD90111969C938E9382819381A5
:103CF00013969C938E931297B0E0A0E08A819B81EB
:103D00000097B9F5FE0181919191E80FF91F80911B
:103D10006B0290916C028E179F0719F6109761F550
:103D200010926E0210926D02D0936C02C0936B02DF
:103D3000B8CFB383A28340815181840F951FA81708
:103D4000B90771F44E5F5F4F8D919C911197480FA9
:103D5000591F5183408312968D919C919383828346
:103D60002115310509F0ADCFF0936E02E0936D029D
:103D700098CFDE01EC01C2CF13961C921E921297CF
:103D8000D3CFF894FFCFDD08DD08E608E608E808A1
:103D9000E608E608E608DD08DD08ED08E608E608BE
:103DA000ED0822092E0933092C0931093809360991
:103DB000A00CC80C1A0EC80C1A0EFB0C1C0D1A0E07
:103DC000CB0DD80D64136413DE13DE132C1499137A
:0C3DD0009913991346141C152B152B1584
:103DDC0000006F02200020003C04290A3B04250A45
:103DEC00210A016D7A644C562F7671453051008151
:103DFC008283E200E900EA00B500B600B700CD000E
:103E0C008301CC008A019201940121022302240235
:103E1C002502260227022A02B300B4006F007000AC
:00000001FF
